:10000000000C0020350C0000B10E0000B90E0000FD
:10001000C10E0000C10E0000C10E0000C10E0000A4
:10002000C10E0000C10E0000C10E0000C10E000094
:10003000C10E0000C10E0000C10E0000C10E000084
:10004000C10E0000C10E0000C10E0000C10E000074
:10005000C10E00004D130000C10E0000C10E0000D3
:10006000C10E0000C10E0000C10E0000C10E000054
:10007000C10E0000C10E0000C10E0000910E000074
:10008000C10E0000D9150000C10E0000C10E000015
:10009000C10E0000C10E0000C10E0000C10E000024
:1000A000C10E0000C10E0000C10E0000C10E000014
:1000B000C10E0000C10E0000C10E0000C10E000004
:10040000FFFFFFFFFFFFFFFFFFFFFFFF7EFFFFFF7D
:1004100010B5064C2378002B07D1054B002B02D0DA
:10042000044800E000BF0123237010BD0CFCFF1F37
:10043000000000007016000008B5084B002B03D028
:100440000748084900E000BF07480368002B03D0B5
:10045000064B002B00D0984708BDC04600000000A6
:100460007016000010FCFF1F0CFCFF1F00000000B6
:1004700080B500AF024A034B0349D150FEE7C046A6
:1004800000E000E00C0D00000400FA05F0B547465E
:1004900080B4041C8846171C094BC6180020094D5F
:1004A000AE420AD8201C00F035FE4046211C3A1C02
:1004B00000F060FE002800D01B2004BC9046F0BD78
:1004C00000E0FFFFFF5F000038B58024A401802515
:1004D0002D02201C00F01EFE002805D18023DB0029
:1004E000E418AC42F5D100E01B2038BD10B5054B37
:1004F0001C68631C04D000F0FDFA002800D1A0475E
:1005000010BDC0460420000010B582B001AC201C14
:1005100000F0FEFB208800F05BF80022014B1A601F
:1005200002B010BD28FCFF1F08B5002000F0DAFB68
:1005300008BDC046FFBE7047FFBE70477047C0464B
:10054000054B1B68002B04DD013B034A13600120AF
:1005500000E000207047C04650FCFF1F054B1B68A1
:10056000002B04DD013B034A1360012000E0002062
:100570007047C0464CFCFF1F014A024B1A6070478F
:10058000204E000050FCFF1F014A024B1A607047CA
:10059000204E00004CFCFF1F70B5C0430D1C8A1894
:1005A00008260121094C0CE02B785840331C0142ED
:1005B00002D04008604000E04008013B002BF6D12B
:1005C00001359542F0D1C04370BDC046783BF682FC
:1005D00038B514490A68D3009B1A1B18DB100B604E
:1005E000114C2268D100891A5918C91021600F4C8A
:1005F0002268D500AA1A9B18DB102360884201DA12
:10060000094A1060984201DD084B1860074B1968D1
:10061000054B1B68C9184910411A054800F090F9AC
:1006200038BDC04608FCFF1F00FCFF1F04FCFF1F75
:10063000E4FCFF1F08B5024800F070F908BDC04691
:10064000E4FCFF1F411808780006CB78C0184B78EF
:100650001B04C0188B781B02C0187047F0B54746C2
:1006600080B40C1C151CA14B19683C311960A04BBF
:100670001B785BB2002B00DD34E18B2C01DD00F038
:1006800057F99C4B1D550122994B1A700134082CC7
:1006900000D181E002DC042C47D01CE10C2C00D1FD
:1006A000ABE0882C00D016E1924B1B785BB2422B5A
:1006B00000D010E18F4B5B785BB24C2B00D00AE18D
:1006C0008C4B9B785BB24F2B00D004E1894B032508
:1006D0005D57072D25D81C1C181C0421FFF7B2FFFD
:1006E000061C211C083100208022FFF755FF86429E
:1006F00011D1EE010023804C7E4832191918097A75
:10070000D1540133802BF8D101227C4B5A557C4ABD
:10071000764B1A6005E00222784B5A55784A794B9D
:100720001A60794800F004F9D5E0724B1B785BB28F
:100730004B2B16D16F4B5B785BB2492B00D0CAE0D4
:100740006C4B9B785BB24C2B00D0C4E0694BDB78E0
:100750005BB24C2B00D0BEE0FFF7B6FE6A4800F05B
:10076000E7F8644B1B785BB2422B00D0B3E0614BDF
:100770005B785BB24F2B00D0ADE05E4B9B785BB2F9
:100780004F2B00D0A7E05B4BDB785BB2542B00D043
:10079000A1E0FFF76DFE9EE0564B1B785BB2442B49
:1007A00000D098E0534B5B785BB24F2B00D092E0C7
:1007B000504B9B785BB2492B00D08CE04D4BDB78E3
:1007C0005BB2542B00D086E00022504B1A604B4B9A
:1007D000191C08311A7001338B42FBD14C4B191C88
:1007E000183100221A7001338B42FBD14148042199
:1007F000FFF728FF474B18606DE03E4B1B785BB25C
:10080000462B68D13B4B5B785BB24C2B63D1394BA9
:100810009B785BB2412B5ED1364BDB785BB2532BBE
:1008200059D1344C201C0421FFF70CFF061C201C5E
:100830000821FFF707FF804600202F498022D200C1
:10084000FFF7AAFE2D4F3C1C08343A1C00211578F6
:10085000013D6B425D4149190132A242F7D108299D
:100860001ED140451CD180229201B018224980221D
:10087000D200FFF70BFE1B280AD1FFF77DFE234BAA
:100880001A6801321A60B60A0222214B9A5526E0F4
:10089000B60A01221E4B9A551F4A144B1A601EE0DD
:1008A0001A4B1A6801321A60B60A0222184B9A557E
:1008B000FFF762FE13E01A7001339C42FBD10E4B2E
:1008C0008022D200991800221A7001338B42FBD18A
:1008D0000D4800F02DF80022054B1A7002E03B1C79
:1008E0000022E8E704BC9046F0BDC0464CFCFF1F68
:1008F00058FCFF1F00FDFF1F8CFDFF1F2CFCFF1F7E
:10090000204E000050FCFF1FE4FCFF1F5CFCFF1F9B
:1009100034FCFF1F54FCFF1F50C300000023036082
:100920004360072282600361C36002234361704712
:100930000723836000230361022343617047C0469D
:1009400038B5041C0D1C436801334360C8225200B3
:10095000934201DD02224261216800297ADC002DE8
:1009600078DD012B74DD01221F2B00DC002263697E
:10097000022B04D0032B16D0012B69D141E0E16892
:100980004B00FF210B40002A01D1E36001E001335D
:10099000E360E268022A5BD1032363610223A3615F
:1009A0000023A36054E0E1684B00FF210B40002AC4
:1009B00001D1E36001E00133E360A1680131CA17AE
:1009C000520F891807230B409B1AA36040D1A369DB
:1009D000022B04D1E268022A10D0032A0ED0E2686A
:1009E000002A09DD511C8B4206D1012A06D10123C0
:1009F00063610023236101E002236361E268A26175
:100A000026E0E1684B00FF210B40002A01D1E360A2
:100A100001E00133E360A1680131CA17520F891860
:100A200007230B409B1AA36012D1227B201C216953
:100A3000FFF714FE2369013323618B2B02DC0023B3
:100A4000A36005E00723A360002323610223636101
:100A500000236360256038BD10B50F4B59698022B3
:100A600052011143596119680A431A600B4B186B04
:100A70000B4908408022520010431863094B5C69FF
:100A8000402004435C611C6820431860064B986951
:100A900001400A439A6110BD00F00F4000900440ED
:100AA000FFF8FFFE40F00F4000A00440024B186921
:100AB0000007C00F7047C04640F00FF88022520177
:100AC000014B5A607047C04600F00FF88022520177
:100AD000014B9A607047C04600F00FF84022014B6E
:100AE0005A60704740F00FF84022014B9A607047FF
:100AF00040F00FF838B5114A114BD058C021C90049
:100B00000143D1500F4B5A6908218A435A610E4B59
:100B1000D9680E4A0A40802149000A43DA60FA2463
:100B2000A4000025FFF7C2FF2D18013C002CF9D1CD
:100B3000FA20400085428041404238BD00700440A8
:100B40003810000040F00F4000A00440FFF8FFFE06
:100B500010B5031C0B439C0701D1930703D000235E
:100B6000002A0AD10EE092080CD092000023CC5843
:100B7000C45004339342FAD104E0CC5CC454013332
:100B80009342FAD110BDC04608B500F0F9F9FFF75D
:100B900051FDFFF761FFFFF7F7FCFFF7D1FC0128DC
:100BA00002D1FFF79BFF01E0FFF79EFFFFF7D6FCA6
:100BB000012802D1FFF782FFEFE7FFF787FFECE79D
:100BC00010B588421BD0002A19D0031C0B439C0788
:100BD00005D1032A03D908C9043A08C0F3E7DC07A2
:100BE00007D4012A05D90B88023A0380023102306A
:100BF000E9E70B78013A037001310130E3E710BDFA
:100C000010B50024094AA3181968002906D0121942
:100C100050689268FFF7D4FF0C34F3E75868002857
:100C2000F5D19B68002BF2D110BDC0469C16000088
:100C300070477047194B181C002805D0854681B0B5
:100C40000020C043009001B0FFF7F2FF00F03AF936
:100C5000134B002B01D0FFF7D3FFFFF7EAFF114A38
:100C6000114B9B1A002B02D1FFF78EFF15E00321D9
:100C7000114004D1032B02D902C2043BF2E7012147
:100C8000114005D1012B03D91180023B0232E9E763
:100C900000211170013B0132E4E7FEE7000C002067
:100CA0009C1600000CFCFF1F9801002010B5094B9A
:100CB0001B78002B0CD00023074A137007490B70D8
:100CC000074C2068012200F0B9F8206800F0A0F875
:100CD00010BDC04668FCFF1F60FCFF1F64FCFF1FC7
:100CE0009001002010B5041C084B1A780820002A37
:100CF0000BD101221A70FFF7D9FF0020002C04D07D
:100D0000024A1378012BFCD0002010BD68FCFF1FA5
:100D1000054B1A780923002A04D0044B1B881B01B9
:100D200003800023181C704760FCFF1F8C0100200B
:100D300008B5074B1868074900F096F80122064BE2
:100D40001A70FFF7E1FB0022044B1A7008BDC04681
:100D5000900100208C01002060FCFF1F68FCFF1F39
:100D600008B50023044A1370044A1370002000F0F1
:100D700009F8034B186008BD60FCFF1F68FCFF1FEB
:100D80009001002030B5194B5860194A13600021BA
:100D9000197099701748184A8558802424052C43E7
:100DA0008450164AC320800015582D022D0A802435
:100DB00024062C4314501468802000022043106045
:100DC0000F4A546A0F48204050620F4A74209060C6
:100DD000D0680F24A04301242043D0601162402139
:100DE00051620A4A9360181C30BDC04670FCFF1F58
:100DF0006CFCFF1F007004403C10000000E100E0AC
:100E000000900440FFF8FFFE00B00340B4FCFF1F59
:100E1000094B1A6A082311060BD4074B5A6A48215A
:100E20008A435A621A6A40218A431A6242781A60D7
:100E30000023181C7047C04600B0034010B596232D
:100E4000012A0DD1074B1A6A0823140608D401237E
:100E500003700A788223002A02D1422343700023C0
:100E6000181C10BD00B0034030B50378002B0BD028
:100E70000023064D1A1D920054595A005452013352
:100E8000DBB202789A42F5D8002030BD00B00340B2
:100E900008B5054B1B6801229A705868FFF748FF98
:100EA000024B1B6908BDC0466CFCFF1F00B003402D
:100EB00008B5FFF73FFB08BD08B5FFF73DFB08BDD0
:100EC000FFBE704708B5FFF711FB224B224A2349AA
:100ED000D150234B0021882252019950C021890210
:100EE000204A9950204A9858C021C900014399507E
:100EF0001E4B9B781A0704D51C4B997808220A438D
:100F00009A70174B80214902164A9950184A9858EE
:100F1000184901408020400401439950164B062295
:100F20001A70597840220A405A70D9781F220A4014
:100F3000A0210A43DA708022104B1A700E49102249
:100F40008B791342FCD00C490C228B791342FCD1D3
:100F500008BDC046080D000000E000E000000000F1
:100F600000700440441000003810000000D007401A
:100F700004100000FFFFFFFC004006400050064048
:100F800010B51D4B58691D490840C02292001043FE
:100F900058611B4B58791F24A043587118790724B6
:100FA000A0431871174B18787324A0435024204392
:100FB000187058786324A0434024204358709878D0
:100FC0001924A043987000200F4B18700F4B5868DD
:100FD00001400A435A600E4AC1239B00D0580D4974
:100FE0000140D150002000F00FFBFFF7B9FE00F0E8
:100FF0007DF862B610BDC04600A00440FFF8FFFEB9
:1010000000F0074000D0074000E007400090044097
:1010100000E100E0FFFF00FFF8B584460E1C131C42
:101020002B4C24780820002C50D1171E31D00A7880
:101030000024FF2A2AD002E0A55DFF2D26D006213C
:10104000244A11600121224A1170234A614611602D
:10105000224A1660224A1360224B1868B60AB1026F
:101060008022D20000F044F9002807D1184B1B78E9
:10107000002B00D0FEE71C4B187805E00022144B33
:101080001A70892800D10220C0B21FE00134BC428E
:10109000D2D305210F4A116001210D4A1170114A66
:1010A00010686146321C00F0FBF8002807D1084B9D
:1010B0001B78002B00D0FEE70B4B187805E00022D0
:1010C000034B1A70892800D10220C0B2F8BDC04677
:1010D0008CFCFF1F88FCFF1F7CFCFF1F90FCFF1F88
:1010E00080FCFF1F94FCFF1F79FCFF1F08B5002048
:1010F00000F0A8F8044B18600022044B1A7001227B
:10110000034B1A7008BDC04694FCFF1F8CFCFF1FE8
:1011100084FCFF1F08B5011C124B1B780820002B14
:101120001ED10222104B1A6001220E4B1A700F4B77
:101130001868890A89028022D20000F0D9F80028B4
:1011400007D1084B1B78002B00D0FEE7084B18781E
:1011500005E00022034B1A70892800D10220C0B29A
:1011600008BDC0468CFCFF1F88FCFF1F94FCFF1FBE
:1011700079FCFF1F08B5FFF74FFF08BD08B5002237
:10118000174B1A70174B1B68052B1AD0062B20D152
:101190000522144B1A60144B1868144B1968144B31
:1011A0001A68144B1B6800F07BF8C0B2431E9841CC
:1011B000C0B20B4B1870002811D000220E4B1A70D1
:1011C0000DE000220C4B1A700C4B1B78002B06D044
:1011D00003E00022084B1A7001E0FFF7AFF908BDE9
:1011E00079FCFF1F88FCFF1F94FCFF1F7CFCFF1F86
:1011F00090FCFF1F80FCFF1F8CFCFF1F84FCFF1F67
:1012000000B585B000230B4A13700B4A13600B4BDB
:101210001868694600F064F96A469378DA0603D5DF
:101220000122074B1A7002E00122054B1A7005B02B
:1012300000BDC0468CFCFF1F88FCFF1F94FCFF1FF5
:1012400079FCFF1F0F4B022210B55A700022DA7092
:101250001A70DA600C4AC12113600C4A8900545894
:1012600058610B4820405050116820200143116004
:101270000849094A0124885820438850074A181C05
:10128000D36010BD9CFCFF1F98FCFF1F00E100E035
:10129000FF00FFFF007004403C100000B4FCFF1F83
:1012A00070B54578041C0820022D1BD80E4D5E1E1B
:1012B0008920AE4216D880252D02ED1AAA4211D8F7
:1012C00002202070042060700620A070A36000201F
:1012D000064B2261E160606059783F220A4080211C
:1012E0000A435A7070BDC046FF7F000000000240F4
:1012F00030B54478031C0820022C22D8114C551E0E
:101300008920A5421DD880242402A41AA14218D8FD
:101310000C1C1443A405A40D13D19A608022032051
:10132000D20018705A6004200922587019619A700E
:10133000DC60054B3F225978201C0A4080210A437B
:101340005A7030BDFF7F000000000240F0B55E4BD8
:10135000012291B0524203921B68002204925878F5
:10136000C11E022900D9ACE01978012900D1A8E0FA
:10137000564C7021042802D12170DA701BE02078CD
:101380000140D8780143D97008D05A705869FFF7E6
:1013900037FF62787F231340637092E098680028DB
:1013A00009D102225A7061787F220A40627058691E
:1013B000FFF7E4FE85E059781A78042902D1052167
:1013C000597009E01D69596868181861022A03D12B
:1013D000DE687118D96002E0D2B2032A04D0042A70
:1013E00006D0022A38D107E09F6858683A1A01E00F
:1013F0009A68013A9A602FE0196903220A40042092
:10140000801A9D68C0B20091854200D2E8B20021E6
:10141000CEB286420AD2DF6803AE7F5CB61877543C
:1014200004AEB618FF2777540131F1E70099039E07
:101430008F1A3968049FC9433740394204D0DA789B
:1014400004210A43DA703CE05860281A986020486A
:1014500071400391016000E000229978E1711D69FB
:10146000A91AC9B221711E6905ADB11A090AC9B21A
:1014700061711B6917499A1A120CD2B2A271281C09
:101480002822FFF765FB144B6A461978EFF31080AA
:1014900072B6D0720131C9B20B3219701C1C01290D
:1014A00002D112780D4B1A7001231D43A8472378EF
:1014B000013BDBB22370002B03D1084B187880F37B
:1014C000108811B0F0BDC04698FCFF1F000002401C
:1014D000080002404816000078FCFF1F940100201D
:1014E00013B5144A031C6C46EFF3108072B6E0711A
:1014F000107807340130C0B21070012802D124786E
:101500000D4804701878087098784870D8788870FA
:1015100018694860D8685B688860CB601378013BC5
:10152000DBB21370002B03D1034B187880F31088C3
:1015300013BDC04678FCFF1F9401002008B5FEF7DC
:10154000F3FF08BD70B51B4C2368002B2CD11A4A41
:10155000012111721949D0600A6019481949802582
:1015600046586D04354345501749C4200B604B6005
:10157000CB604B61154B80008B6080235B00136058
:1015800008235360124B134D1E5835408026F60138
:1015900035431D501D688020800228431860482371
:1015A0000B602260131C03E01A7AD86001321A72B1
:1015B000181C70BDB4FCFF1FC8FCFF1FC4FCFF1F3C
:1015C000007004403C100000008003405E090000F1
:1015D00000E100E0FF00FFFF094B80211A68094B82
:1015E00010B518680840441EA04114680002044267
:1015F00005D0186801431960D06800F01BF810BDD1
:10160000C4FCFF1F0080034038B5084C084DA060A3
:101610000123002023716C60FFF794FF20600028F5
:1016200001D1686000E0201C38BDC046D8FCFF1F17
:10163000B4FCFF1F08B5034B5B689868FFF77EFF9B
:1016400008BDC046B4FCFF1F07B4074980200870DE
:1016500008780006FCD505490A68D22040021043EC
:1016600008600A6007BC7047000002400C3000F0C0
:10167000F8B5C046F8BC08BC9E467047F8B5C046F1
:08168000F8BC08BC9E4670474F
:041688003904000021
:04168C001104000045
:0C1690002823000028230000282300006D
:10169C009016000000FCFF1F0C0000000000000072
:0816AC00000000000000000036
:0400000300000C35B8
:00000001FF
