:10040000FFFFFFFFFFFFFFFFFFFFFFFF7EFBFFFF81
:10200000000C0020ED4A00009D4E0000A54E00008F
:10201000A54E0000A54E0000A54E0000A54E0000F4
:10202000A54E0000A54E0000A54E0000A54E0000E4
:10203000A54E0000A54E0000A54E0000A54E0000D4
:10204000A54E0000A54E0000A54E0000A54E0000C4
:10205000A54E0000A54E0000A54E0000A54E0000B4
:10206000A54E0000A54E00008D530000A54E0000B7
:10207000A54E0000A54E0000A54E0000754E0000C4
:10208000A54E000099550000A54E0000A54E000089
:10209000A54E0000A54E0000A54E0000A54E000074
:1020A000A54E0000A54E0000A54E0000A54E000064
:1020B000A54E0000A54E0000954E0000A54E000064
:1020C00010B5064C2378002B07D1054B002B02D00E
:1020D000044800E000BF0123237010BD18FCFF1F5F
:1020E000000000003057000008B5084B002B03D05B
:1020F0000748084900E000BF07480368002B03D0E9
:10210000064B002B00D0984708BDC04600000000D9
:10211000305700001CFCFF1F18FCFF1F00000000D0
:10212000002941D010B4041C4C40A44601230022D5
:10213000002900D54942002800D5404288422CD3CE
:1021400001242407A14204D2814202D209011B01C9
:10215000F8E7E400A14204D2814202D249005B00C8
:10216000F8E7884201D3401A1A434C08A04202D330
:10217000001B5C0822438C08A04202D3001B9C0871
:102180002243CC08A04202D3001BDC0822430028D3
:1021900003D01B0901D00909E3E7101C6446002C99
:1021A00000D5404210BC7047002806D003DB002059
:1021B000C043400801E08020000607B4024802A1A5
:1021C0004018029003BDC046190000000029EBD062
:1021D00003B5FFF7A7FF0EBC4243891A1847C04654
:1021E0007047C0468446101C62468C46191C6346E4
:1021F00000E0C0461FB500F0BBFE002801D400215E
:10220000C8421FBD10B500F0EBFD4042013010BDCB
:1022100010B500F0ADFE002801DB002010BD01204C
:1022200010BDC04610B500F0A3FE002801DD00205F
:1022300010BD012010BDC04610B500F01BFE0028E7
:1022400001DC002010BD012010BDC04610B500F01B
:1022500011FE002801DA002010BD012010BDC0468B
:102260008446081C6146FFE71FB500F0EDF9002821
:1022700001D40021C8421FBD10B500F073F94042DF
:10228000013010BD10B500F0DFF9002801DB00209F
:1022900010BD012010BDC04610B500F0D5F90028D2
:1022A00001DD002010BD012010BDC04610B500F0BA
:1022B00083F9002801DC002010BD012010BDC046BC
:1022C00010B500F079F9002801DA002010BD0120D6
:1022D00010BDC0469C460304F0B51B0C17043F0C10
:1022E000150C1E1C041C000C7E436B4347434543E6
:1022F000FB18300C1818874202D980235B02ED18B6
:10230000030CED1863465C434A433604360CA118AF
:10231000000480194919F0BDF0B55F4656464D4698
:102320004446F0B446024500C00F85B00F1C760A43
:102330002D0E804641D0FF2D26D08024240400217C
:102340002643F6007F3D89468B46F90F7C027800D4
:10235000640A000E00918A463CD0FF2834D08023C6
:102360001B041C430023E4007F380193009F434675
:10237000019A7B4049469C4611430F2900D971E0E0
:10238000764F89007F58BF46002E3ED10822022397
:1023900091469B46D9E75A46341CC24601920199A0
:1023A000022937D0032900D1CFE0012900D0ABE0CA
:1023B00053460B400022002632E0002E19D10421A2
:1023C000012289469346C0E7221C531E9A410232DD
:1023D0000192CBE701270197002CC7D0201C01F008
:1023E0001BFD431F9C4076235B420021181A01917C
:1023F000BCE7301C01F010FD7625431F9E406D4266
:1024000000232D1A99469B469FE70C2303219946EA
:102410008B469AE7D446012367463B40FF220026BD
:102420007602D205700ADB071043184305B03CBCA6
:1024300090469946A246AB46F0BD80260023F6039F
:10244000FF22EDE700220026EAE78020C0030642D3
:102450003BD0044239D1061C26437602760A009B03
:10246000FF22DDE7281A039076016401A64239D3E2
:10247000361B1A2201230120311C5B007600002943
:1024800001DBB44201D8361B0343013A002AF3DCD6
:10249000741EA641341C1C43039A7F32002A27DD98
:1024A000630704D00F232340042B00D004342701FA
:1024B00003D52B4B039A1C408032FE2A0BDD0123EF
:1024C00061460B40FF220026AAE706437602760A01
:1024D0004346FF22A4E7A40101236746660AD2B25D
:1024E0003B409DE7039F1B22013F03970023C2E768
:1024F0007E23039F5B42DB1B1B2B07DD0123614611
:102500000B40002200268BE7D446C5E7221CDA40A8
:10251000039B9E339C40231C5C1EA34113435A071C
:1025200004D00F221A40042A00D004335F0105D5DD
:10253000012361460B400122002671E79E0162469D
:1025400001231340760A00226AE78026F603264319
:102550007602760A5346FF2262E7C0460456000020
:10256000FFFFFFF74A02430270B55C0A550A4300B9
:102570004A001B0EC60F120EC90FFF2B05D0FF2AF3
:1025800008D0012093420BD070BD0120002CFBD15C
:10259000FF2AF6D10120002DF6D101209342F3D17C
:1025A000AC42F1D18E4205D0002BEDD1201C441E4F
:1025B000A041E9E70020E7E74A024302F0B55C0AE0
:1025C000550A43004A001B0EC60F120EC90FFF2BFF
:1025D00031D0FF2A34D0002B16D1604260418446AE
:1025E000002A14D0002820D18E4217D1934215DC46
:1025F00004DBAC4212D80020AC4212D270427041CF
:102600004042012318430CE0002AEDD194466F426A
:102610006F416046002805D1002FE5D070420123AC
:102620001843F0BD0020002FFBD1484248414042F2
:1026300001231843F5E7002CCBD002204042F0E7FD
:10264000002DC8D0F9E7C0464A024302F0B55C0A43
:10265000550A43004A001B0EC60F120EC90FFF2B6E
:1026600027D0FF2A29D0002B10D0002A15D194465C
:102670006F426F416046002815D00020002F04D122
:1026800048424841404201231843F0BD6042604146
:102690008446002AECD00028F2D18E4211D070423C
:1026A00001231843F1E7002FF7D0704201231843AC
:1026B000EBE70220002CE8D1D3E70220002DE4D183
:1026C000D1E79342EBDC04DBAC42E8D80020AC421B
:1026D000DBD270427041404201231843D5E7C04627
:1026E00070B5041E3CD0C60F00D04442201C01F03F
:1026F00093FB9E23251C1B1A962B0CDC0838844068
:102700006402640ADBB2321C6402DB05600AD20791
:102710001843104370BD992B0ADD0522121A211CA3
:10272000D1400A1C011C1B318D40691E8D4115438F
:10273000052801DD421F9540164C2C406A0704D045
:102740000F221540042D00D0043461010CD59F23C5
:10275000181AFF281AD0A401640AC3B2321CD3E7A6
:10276000002200230024CFE7E408FF2B04D06402FA
:10277000640ADBB2321CC7E7002C04D08020C003FF
:1027800004436402640A321CFF23BDE7321CFF23AA
:102790000024B9E7FFFFFFFBF0B5564644465F460D
:1027A0004D46F0B41F1C0B031B0B98464B0087B023
:1027B000041C81465B0DC80F161C9A460090002B26
:1027C00051D06A4B9A4531D08022414652030A4388
:1027D000630FD2001A43664B90460025E2009146F3
:1027E0009A44002402953B031B0B9B46FD0F7B0084
:1027F000311C5B0D019560D05C4A934254D080211E
:10280000584649030143720FC9001143584A8B4689
:102810009B18F1000020009A04436A4003920F2C99
:1028200000D9ADE0534EA4003459A74640460443B6
:102830006ED1002102250824884689460295D2E7F8
:10284000009C0298C34649460194022864D003289C
:1028500000D1ABE2012800D038E2019A0024024006
:102860000025A14660E0434623434AD04046002865
:1028700000D1C0E101F0D0FA031E272B00DDB3E147
:1028800028210D1A211C083B4246E9409A400D1CA4
:102890001543221C9A40A8469146374B00251B1A27
:1028A0009A46002402959EE75A4616430320002EBE
:1028B000B1D1B34600210220ADE75A4632431BD0C6
:1028C0005B46002B00D18AE1584601F0A5FA272883
:1028D00000DD7DE12822171A011C321C08395B46F5
:1028E000FA408B40171C1F43331C8B40BB46191CFE
:1028F000214B1B1A00208EE70027BB460021012038
:1029000089E70020012504248046814602956AE774
:1029100003250C24029566E7019C0394039D012284
:102920002A400024114DA146002000212403260B3B
:102930000C0D2405114B34432D0523402B435B0024
:102940005B08D207191C4846114307B03CBC9046AF
:102950009946A246AB46F0BD00228024240391464E
:10296000024DE1E700240025A146DDE7FF07000056
:1029700001FCFFFF445600000DFCFFFFFFFF0F802E
:102980005546ED1A0495D84500D953E100D14EE1E2
:10299000049C0025013C4E4604944746A9465846EF
:1029A00003020C0E1C430902250C23041B0C00918E
:1029B000381C291C019301F0E1F901998346414338
:1029C000381C8A46291C01F01DFA330C09041943EE
:1029D0008A450CD95B460919013B8C4200D947E175
:1029E0008A4500D844E102225242934409195346D1
:1029F000CB1A181C291C984601F0C0F9071C019835
:102A0000291C78438246404601F0FCF936040B0449
:102A1000360C33439A4509D91B197A1E9C4200D9BA
:102A200024E19A4500D821E1023F1B195E46320499
:102A30001743380CBB46009E009F51463F0C3204A2
:102A40005B1A5946BA46120C0F043F0C9046514689
:102A50007A434F434146414356467043CF19160CC3
:102A6000BE19B14202D980277F02C019310C12046D
:102A70003604120C4018B618834200D2C4E000D1CC
:102A8000BEE0191A4846861BB145BF417F42CF1BA5
:102A9000A74200D113E1291C381C01F06FF90199FC
:102AA00002904143381C8946291C01F0ABF9330CD4
:102AB0000904194389450CD9029B0919013B8C4231
:102AC00000D9FFE0894500D8FCE0029F0919023FC8
:102AD00002974F46CF1B381C291C059701F04EF971
:102AE000071C0198291C78438146059801F08AF952
:102AF00036040904360C0E43B14509D936197B1E3C
:102B0000B44200D9E0E0B14500D8DDE0023F36191B
:102B1000029D4946761A290439430B0457460A0C8C
:102B20001B0C40464546584355437B437A43EB18BC
:102B3000070CDB199D4202D980256D0252191D0C2C
:102B400000041B04000C52191B18964235D300D107
:102B5000FCE001231943049E994FF519002D00DC78
:102B6000A1E0480709D00F230B40042B05D00B1D13
:102B70008B42894149428B44191C5A46D20107D5E0
:102B8000904B5C46049E80271C40FF00A346F5192D
:102B90008D4B9D427ADD039C0122224000248B4D07
:102BA000A146C1E680242403474627424CD13C433A
:102BB0002403240B009A854DB6E63619481EB4420C
:102BC0005ED9011C9642C4D1009E9E42C1D1C2E78B
:102BD000031C283B311C99408B46002188E6301CA1
:102BE00001F01AF9203072E6283B211C994000229E
:102BF0008846914651E6201C01F00EF920303BE654
:102C00000021B14500D33DE7009F5A46B944B9457C
:102C1000BF417F423F19FB18013A9C421ED29842A5
:102C200000D97EE000D1B5E0191A93462AE789451C
:102C300000D8ADE64846464642467708D3074608E0
:102C4000C0071E438146AAE65846204212D10443DB
:102C500024032A1C240B89465C4D65E6A342E3D17C
:102C6000009F4F45DBD9211A93460BE7171CDDE681
:102C70009B46BCE63C432403240B009A534D53E689
:102C8000B24259D800D18AE0011C62E75F46C90808
:102C90007B07039E0B437C026D0501229946240BA2
:102CA0006D0D324040E64A4B049FDB1B382B10DD94
:102CB000039C0122224000240025A14634E6012184
:102CC000494248E7029304E71F1C21E7019C039453
:102CD00041E71F2B40DC3F48049F0C1C3A18584624
:102CE0009140DC40904020430A1C511E8A41011C47
:102CF00011435A46DA40131C480709D00F220A40F4
:102D0000042A05D00A1D8A42894149425B18111CD8
:102D10001A0234D5039C0122224000240125A14639
:102D200002E6009F02214942B9448B44B9458941DA
:102D300049420919CB18A4E6009D881E6900A942E2
:102D4000AD416D422C19361900913AE7002B00D0A5
:102D500033E70024009437E71F4A049C5D46121BAA
:102D6000D5402A1C202B1FD01C4E5F46A3199F4024
:102D70003B1C19434B1E994111430023BCE75A07E2
:102D8000C9080A43039F91465B0201221C0B3A408B
:102D90000025C9E54E45C4D89346002172E6009F40
:102DA0009F42C9D3011C0FE70023E2E780242403DC
:102DB0005F463C432403240B019A8946034DB3E547
:102DC000FF030000FFFFFFFEFE070000FF070000FB
:102DD00002FCFFFF1E040000E2FBFFFF3E040000B8
:102DE000F0B55F4656464D464446F0B40D1C041CF3
:102DF0008046E80F814618030F03000B3F0B83B09A
:102E000084461B48009749005E00DF0F490D92463B
:102E1000760DBB4681420CD01548864210D0012069
:102E2000B14215D003B03CBC90469946A246AB4691
:102E3000F0BD009F01202743F4D10D488642EED11A
:102E4000604602430120002AECD10120B142E9D1C1
:102E5000009B6345E6D1D045E4D1D94506D0002991
:102E6000E0D11C43201C441EA041DBE70020D9E731
:102E7000FF070000F0B55F4656464D464446F0B4A5
:102E8000CD0FDE0FAC461D032D0BB146374E0F03A1
:102E90004C00AB465D0080463F0B640D92466D0DC5
:102EA000B44232D0314EB54235D0002C0ED1384329
:102EB00041424141081C002D0BD0002919D1CC45BD
:102EC0002DD0654668420123184318E0002DF6D145
:102ED000281C59460A4353425341002806D1002B6F
:102EE000EDD0634658420123184308E00020002B30
:102EF00005D14A46504250414042012318433CBC50
:102F000090469946A246AB46F0BD3E1C0643C9D04A
:102F100002204042F3E75E461643C6D0F8E7AC42D3
:102F200007DC0BDA6146484248414042012318431E
:102F3000E5E76646704201231843E0E75F450AD89B
:102F40000ED000205F45DAD26546684268414042B3
:102F500001231843D3E76246504201231843CEE7CA
:102F6000D045F8D80020D045EED3C8E7FF070000D1
:102F7000F0B556464D4644465F46F0B40D1C83B04E
:102F8000041C0190E80F814618030F03000B3F0B50
:102F900084463548009749005E00DF0F490D924690
:102FA000760DB846814234D02F48864236D000296B
:102FB00018D0002E1FD1341C67463A435342534168
:102FC000002C1FD00020002B05D14246504250411A
:102FD00040420123184303B03CBC90469946A246A8
:102FE000AB46F0BD0098044360426041041C002ED3
:102FF000E2D00028E9D1C14515D04F4678420123DF
:103000001843E8E7002BF6D04B46584201231843FB
:10301000E1E7009F02202743DDD1C5E76746022094
:103020001743D8D1C3E7B14204DD4A4650420123D9
:103030001843D0E7B14207DB00986045E4D80AD0D6
:10304000009F00206745C6D24F46784278414042F3
:1030500001231843BFE7019A5245D5D8019A0020B1
:103060005245F1D3B7E7C046FF070000F0B556461A
:1030700044465F464D46F0B41F1C0B031B0B9A469B
:103080004B0087B0041C80465B0DC80F161C0293D2
:103090008146002B68D0694B0299994232D0802238
:1030A000534652031A43D200630F1A439246644AAE
:1030B000E000891880460291002400253B031B0B89
:1030C0009B467800FB0F321C400D039300D175E046
:1030D0005A4B984269D08022594652030A43730FD3
:1030E000D2001A43564B9346C018F20000230399AE
:1030F0004E4671401C430F2C00D9A9E0514EA4004C
:103100003459A74653461C4300D087E00025AA4601
:10311000A84608240225D1E74946022D6CD0032D8C
:1031200000D117E2012D00D058E10D40EDB200248E
:10313000A9460023A0460020002125030A0D1C05F6
:103140002D0B1205404B2A43134023435B004C4692
:103150005B08E207191C4046114307B03CBC90468F
:103160009946A246AB46F0BD5346234350D0534642
:10317000002B00D184E1504600F04EFE031E272BA9
:1031800000DD76E128210D1A211C083B5246E9405A
:103190009A400D1C1543221C9A40AA4690462B4B80
:1031A00000241B1A0293002588E75B461E43032375
:1031B000002E9CD1B3460022022398E75B4633439E
:1031C00021D05846002800D14EE100F025FE2728E6
:1031D00000DD42E128210F1A021C311C083A5B462F
:1031E000F94093400F1C1F43331C9340BB461A1CED
:1031F000164B181A00237AE701230B400024994646
:10320000A0460E4B97E70027BB46002201236EE73E
:10321000002104248A46884601254FE70C24032513
:103220004CE700258024A9462403A846034B82E7E7
:10323000DA46904603991D1C6FE7C046FF07000061
:1032400001FCFFFF84560000FFFF0F800DFCFFFF15
:10325000029F160C381804904046070C0004000C1E
:103260001204120C031C5343041C3D1C74435543AD
:1032700098463B1C73436419A44644460293230CAE
:1032800063449D4204D9029D802464022D19029555
:103290001D0C039545462C041B04240C1C19059495
:1032A0005C46230C051C58432404240C8446381C1B
:1032B000604365435F438146CC44280C6044BB4671
:1032C000814502D980277F02BB442D04070C2D0CB9
:1032D000000440195546BC462F04E3448446280C9C
:1032E0003D0C2F1C5743B8462F1C77434243B94629
:1032F00047463F0C9144BA46D14446434A4502D919
:1033000080225202B6184F463A0CB6183A04474685
:103310003F043F0CB8462F1C67435D43444358436A
:1033200065190190380C2D184244B846AC4204D9B6
:10333000019880235B02C0180190039C029F201C0F
:103340006044C0196045A44147466442A4462B042A
:103350003C049946240C4C44A046D8448018C246EC
:10336000E24490429241574652429146F219E24558
:10337000BF417F424B46BC46D845BF41D4187F422F
:1033800063461F432D0C7F19B24292414C45AD411B
:1033900052426D421543019E7D19AB19E20D5B024D
:1033A000059F134342023A439A46531E9A41C30D66
:1033B000101C18436402204380465046C0010DD5BE
:1033C000454601225646049C6B082A401A43F307DF
:1033D00001341A43760804949046B246049E634F23
:1033E000F319002B61DD404640070BD00F22444605
:1033F0002240042A06D042460432424580414042DF
:10340000824490465546ED0107D5594B5646049FD8
:1034100080201E40C000B2463B18564A934200DD51
:10342000EAE644465546E2086807104301226C026A
:103430005B050A408046240B5B0D91467BE6DA462D
:1034400090461D1C69E680242403574627421CD160
:103450003C432403240B484B6DE6031C283B311CE2
:1034600099408B460022C3E6301C00F0D5FC20308A
:10347000ADE6283B211C994000228A4690468EE604
:10348000201C00F0C9FC203078E65846204207D1C5
:10349000044303992403240B89469046364B4AE69D
:1034A0003C432403240B344B45E6344B049E9B1BC6
:1034B000382B06DD01230B4000249946A04600234B
:1034C00039E61F2B25DC049C2D4D464660195246DB
:1034D00044468640DC4082405746301C2243DF4051
:1034E000441EA04102433B1C540709D00F2010404A
:1034F000042805D0101D9042924152429B18021C94
:103500001D021AD501230B4000249946A046012331
:1035100011E61C48049C5546001BC540281C202B66
:1035200016D0194E5746A21997403A1C43461A43E3
:10353000531E9A4102430023D6E758075B02D20884
:103540001C0B01230B401043994680460023F2E5F3
:103550000022EBE780242403504601230443194052
:103560002403240B8946044BE5E5C046FF03000015
:10357000FFFFFFFEFE070000FF07000002FCFFFF49
:103580001E040000E2FBFFFF3E040000F8B55F46AA
:10359000564644464D46F0B40C034D00CF0F610A29
:1035A000440F2143C4001803DE0F8046B44646464C
:1035B0005800760A530F3343D600D14A6D0DBA46F0
:1035C000400DB346904200D1F5E0624601267240BC
:1035D0009446674500D1ABE02F1A002F00DC11E1C3
:1035E00000283ED15846184300D0F1E0600700D1D2
:1035F00097E00F232340042B00D122E1221DA24299
:10360000A4416442802309191B04012750460B4042
:103610000740141C002B00D179E0B94B01359D42C5
:1036200000D10BE1B74BE4081940480749020443B5
:103630000B0B002000211B031A0B0B0D6D051B0546
:1036400013436A08B04DFF071D4015436D006D0818
:10365000291C3943201C3CBC90469946A246AB46E7
:10366000F8BDA7488542C1D0802000040343382F0D
:1036700000DDFDE01F2F00DD31E12020C01B1A1C02
:103680005E468240FE40324394465A468240101CB9
:10369000421E9041FB40624602431F1CA21A944204
:1036A000A4416442C91B091B141C0A029ED549028D
:1036B0004F0A002F00D1D6E0381C00F0ADFB021CF1
:1036C000083A1F2A00DDC3E02821231C091A97406D
:1036D000CB401F439440954200DDC0E0551B691C60
:1036E0001F2900DDEAE01F22551B3B1C221CAB40BA
:1036F000CA40AC40651EAC411343CF401C43391C4B
:10370000002573E780217E4D0027C90300247C4BF0
:103710004807E4080443C9089D4250D009030B0B35
:1037200087E780231B04012752460B40174071E7AF
:103730002A1A9446002A00DCA1E0002854D07048E0
:10374000854200D152E780200004034360463828B8
:1037500000DD0EE11F2800DD57E162462020801ABF
:103760001E1C8640B1465E46D6404A4632435E46FF
:1037700086409046301C421E9041424602436046BD
:10378000C3401219A242A441644259180919141CD9
:10379000080200D42AE75A4B01359D4200D131E19D
:1037A000584B60081940012323401C1C0443CB07DD
:1037B0001C4349081AE71E4300D00AE705E7231C0B
:1037C0000B433BD080231B030B431B031B0B30E736
:1037D000013F002F6DD15E46A21B9442A44164427A
:1037E000C91A091B141C60E75846184300D1FDE6AE
:1037F00001267642B4446046002800D0D0E05E4600
:103800003219BFE7002F00D080E0681C4005400D52
:10381000012800DCE8E05A46A21A9442BF41C81AC7
:103820007F42C71B3E0200D498E05846041BA345C4
:103830009241591A52428F1AE2463AE70023002475
:10384000F7E680231B04012756460B403740E1E68C
:10385000271C283887400024954200DC3EE7294990
:10386000AD1A3940C2E6201C00F0D6FA203026E717
:103870005A461A43531E9A41D2B200270EE7002A35
:1038800000D0DEE0681C4605760D012E00DC90E0DD
:103890001B4DA84200D1F5E05E463219A242A44178
:1038A000644259180919CC07520814434908051CE9
:1038B0009CE61348854200D0D9E697E62B1C1F3BB7
:1038C0003E1CDE40331C20296FD03F22551BAF40E9
:1038D0003C43601E84411C430021002586E6381CC1
:1038E00020381E1CC640301C202F60D04022D71B21
:1038F000BB405A461A43531E9A4102430027CDE665
:10390000FF070000FFFF7FFFFFFF0F80002D37D074
:10391000B64DA84200D18FE080252D047F42294377
:10392000382F00DDA8E01F2F00DD24E12025ED1B4E
:103930000E1CAE40B046261CFE404246AC4016432C
:10394000651EAC413443F9405A46141BA3459241CD
:103950005B1A5242991A051CE246A6E6131C3B4329
:10396000141C002B00D0A4E6002700210025002411
:10397000CDE65A461A43531E9A41D2B2002300E7BD
:103980000D1C254358D0FF43002F51D15A46141B1C
:10399000A3459241591A5242891A051CE24684E60F
:1039A0009248854200D0D1E620E6002790E7002328
:1039B0009FE7081C2043002D00D0C2E0002800D162
:1039C000EFE05846184300D110E658460219A242CB
:1039D000A441644259180919141C0A0200D405E6CE
:1039E000834B0125194001E6081C2043002D38D1E6
:1039F00000286FD15946194303D0191C5C46E24692
:103A0000F4E500270021002481E6604620381A1CD6
:103A1000C2406646101C202E00D1AAE04022921B14
:103A200093405A461A43531E9A4102430023A8E684
:103A30006E4DA84200D073E7191C5C46051CE24697
:103A4000D4E5002D22D10D1C254376D0D543002D81
:103A500070D15C445C459241591852428918051C4A
:103A600096E600284CD15946194300D14AE6191C64
:103A70005C46E2465D4DB9E50C43611E8C41E4B203
:103A8000002161E7051C0021002440E6574DA842B3
:103A900053D05542802216043143382D7BDC1F2D34
:103AA00000DD8CE02022561B0A1CB446B240261CC6
:103AB000EE403243904662469440661EB441424610
:103AC0001443E9405C445C459241CB18524299183A
:103AD000051C5DE65846184300D187E55E46A71BE6
:103AE000BC429241C81A5242801A060260D558461A
:103AF000041BA3459241591A5242891AE24675E5C0
:103B00005846184333D04807E40804438020C908C6
:103B10000003014208D0DD08054205D15946CA0814
:103B20005C071443291CE246630FC9001943E400F3
:103B30002E4D5BE52D4A9042AFD1191C5C46051C09
:103B400054E5002830D05846184310D08025480747
:103B5000E408C9082D0304432942E5D0D8082842C7
:103B6000E2D15D46EA085C071443011CDCE71F4D07
:103B70003CE5002355E73D1C203D0E1CEE40351C66
:103B8000202F2ED04026F71BB9400C43611E8C41DC
:103B90002C430021D8E60C43611E8C41E4B2002185
:103BA00090E7191C5C4621E5191C5C460F4D1DE58C
:103BB000031C3B4300D124E7011C3C1C16E52026D6
:103BC000764276190A1CF2409046202D0BD04026F2
:103BD000751BA9400C43611E8C4145462C430021B6
:103BE00070E70021D1E70021F4E7C046FF0700009D
:103BF000FFFF7FFF70B50B1C124C09030E0B590021
:103C0000021C490DDD0F0020A14211DD0E4881424A
:103C10000FDC8020400306430C48401A1F280BDDB0
:103C20000B4A521AD640321C5042002D00D1101CB3
:103C300070BD084BE818FBE7074BC240C9188E401F
:103C40003243F1E7FE0300001D04000033040000CE
:103C500013040000FFFFFF7FEDFBFFFFF8B5041E1C
:103C600031D0C70F00D04442201C00F0D5F8184DC9
:103C70002D1A0A2819DD0B38844024036D05240B06
:103C80006D0D3A1C0026002000210B0D2403240B8F
:103C90001B0523430F4C2D051C402C436400640876
:103CA000D307211C301C1943F8BD061C1536231CF4
:103CB000B3401E1C0B23181AC44024036D05240BAB
:103CC0006D0D3A1CDFE70022002500240026DAE70C
:103CD0001E040000FFFF0F8043001B0E5A1C410210
:103CE000D2B270B54C0AC50F012A17DDE02292004E
:103CF0006407090B9818002200231E0D221C3405AE
:103D00000C431B4940054008214001434900490834
:103D1000ED070B1C2B43101C191C70BD002B15D17B
:103D2000002C1CD0201C00F077F80A281ADC0B218C
:103D3000091A231CCB40191C031C15339C400D4B46
:103D40000903181A4005090B400DD4E7002C03D0D5
:103D50006407090B0848CEE707480021CBE700209D
:103D60000021C8E7011C0B398C40211C0024E6E728
:103D7000FFFF0F8089030000FF070000002934D0F7
:103D80000123002210B488422CD301242407A1422D
:103D900004D2814202D209011B01F8E7E400A142EA
:103DA00004D2814202D249005B00F8E7884201D385
:103DB000401A1A434C08A04202D3001B5C0822435D
:103DC0008C08A04202D3001B9C082243CC08A042CE
:103DD00002D3001BDC082243002803D01B0901D0BA
:103DE0000909E3E7101C10BC7047002801D000202F
:103DF000C04307B4024802A14018029003BDC04668
:103E0000E1E3FFFF0029F0D003B5FFF7B9FF0EBCD7
:103E10004243891A1847C0461C2101231B049842BB
:103E200001D3000C10391B0A984201D3000A08394B
:103E30001B09984201D30009043902A2105C401802
:103E40007047C046040302020101010100000000A6
:103E5000000000007047C04608B5002001F014F9CA
:103E6000014B01221A6008BD0CFCFF1F7047C046C1
:103E700008B500F0D5FB08BDF0B583B06D460A4F1C
:103E80000A4E00240635E0B2291C00F0BBFE2A8849
:103E9000A300B21A0134FA50062CF4D1044B0122CB
:103EA0001A6003B0F0BDC04650FDFF1FFFFF0000C9
:103EB00034FCFF1F7047C0467047C046014B186076
:103EC0007047C04600FCFF1FF8B55F4656464D469A
:103ED0004446F0B4602900DD6021374B0422C15014
:103EE00036499023DB00C2500B683549602280467A
:103EF00091468A465246534332490025C918480024
:103F0000400C8B46FEF7ECFB2F49FEF705FA5946AD
:103F100053464B43424610602A4A0027D2185000AD
:103F2000400C9346C117234B214AFEF7D3F9C40F27
:103F30004E0A221C2B1C92197B411A43531E9A4194
:103F400043469A60594653464B431E4A9B185A00B3
:103F5000520F072A23D81D4992008A5897460A22F1
:103F600041464A600122524291440C214A4688440B
:103F7000002ABFD111490B603CBC90469946A2462D
:103F8000AB46F8BD0F2241464A60EBE703224146AB
:103F90004A60E7E70222524241464A60E2E70022D5
:103FA00041464A60DEE70C2241464A60DAE7C046F5
:103FB000F1197605000000008404000000FCFF1FDA
:103FC000FD430300C39E260000FEFF46C4560000CA
:103FD000F8B590235F4656464D4644460422DB0022
:103FE000F0B4C250602900DD6021354B8046C150DD
:103FF000344960230A6834499A4689460EE0072B03
:1040000055D0012B4ED00021434659600121494231
:104010008A440C235146984400293BD04B465A43CE
:104020002A49002589184800400C8B46FEF758FBAA
:104030002749FEF771F959464B464B4342461060FB
:10404000224A0027D2185000400C9346C1171B4B40
:10405000194AFEF73FF9C40F4E0A221C2B1C921975
:104060007B411A43531E9A4143469A6059464A4639
:104070004A43164BD21853005B0F032BBFD1434664
:104080000D215960012149428A440C23514698442C
:104090000029C3D10B4B1A603CBC90469946A246FE
:1040A000AB46F8BD0C21494243465960AEE70C21AE
:1040B00043465960AAE7C046F119760500000000A2
:1040C0008404000000FCFF1FFD430300C39E260084
:1040D00000FEFF46C046C046F0B55F4656464D4618
:1040E0004446F0B483B001900091602901DD602066
:1040F0000090019990230422DB00CA506A486B4B60
:10410000009A0D1CCA50036869480C1C0722012143
:10411000684E083560278946924683467343664950
:10412000C9184800400C8846FEF7DAFA6349FEF7E2
:10413000F3F843467343604A2060D2185000400CA5
:104140009046FEF7CDFA5D49FEF7E6F8FC218905B9
:10415000FEF7ACF8431E984140424B461840434698
:1041600073432860544851461B181A140A409100A2
:10417000584641588F460C2262602968002901D0B8
:104180004A466260013F0C340C35002FC6D1494EBF
:104190004948734344491D1868000D60400CFEF700
:1041A0009FFA4649FEF7B8F8FC218905FEF77EF82C
:1041B00000280DD0009806286DDD0724019A002103
:1041C000043213680131033313600C32A142F8DB6F
:1041D000384B394A5D43344BAD1868001D60400CC4
:1041E000FEF77EFA3549FEF797F8FC218905FEF7C0
:1041F0005DF800280FD00099062949DD07220092BA
:10420000019B0098043300221968013205391960B6
:104210000C338242F8DB03B03CBC90469946A24680
:10422000AB46F0BD5246626028680028AAD00E2135
:1042300049426160A6E70322626029680029A1D093
:10424000032262609EE7484660602868002899D093
:104250000022626096E70C22524262602A68002ABD
:1042600090D00C22524262608CE700216160296884
:10427000002900D186E7062AEAD811489200825820
:1042800097460222524262607CE70D226260DCE7C0
:104290000029B5DCBFE7041E00DD8FE77543064942
:1042A000014A6D181560B6E700FCFF1F840400008A
:1042B000E4560000FD430300C39E260000FEFF46B7
:1042C00004570000F0B544465F4656464D46F0B4EC
:1042D0004A4397B00693534301900C1C90469B466B
:1042E000602B06DD17B03CBC90469946A246AB4613
:1042F000F0BD111CFFF7F0FEC44B01985946C150A8
:104300009023DB00C450069C012C00DC21E1231C1F
:10431000013B44465C43BE48221C4244814605683A
:1043200002945A4500DD5A464046541EC30F099474
:104330004344029C5B101C19E31803945B4500DDA9
:104340005B465C1E0E945B4500DD5B465C1E08947C
:10435000019C404604344100A2460F94029C414413
:104360008900121B02988A440A91640051008A183D
:104370000B94241803989200171C420001991218FC
:1043800092008A181B1A10925A00D3189B000C3BFB
:104390001293029BA40001335A00D3189B000C19FE
:1043A0001493012153460A9ECA460C3FD9460791F1
:1043B0001593AB464146002910DD019A0F9B159DD0
:1043C00008321868191F985108689919043908604B
:1043D00011680C3391510C32AB42F2D18D4B5A46DD
:1043E00053438D48181804904000400CFEF778F9AC
:1043F0008A49FDF791FFFC218905FDF757FF002849
:104400001ED10499834B844A4B439A185000400CA8
:104410000492FEF765F98149FDF77EFFFC218905CD
:10442000FDF744FF002848D107990A9A069B0131FD
:104430000791B618994200D187E004988346B9E7FE
:10444000099B02995800490003250D918346B44603
:104450000B9A02995318019A9B00D31819685A684D
:1044600005910C920D999E68019A149B0B91D2189C
:104470000299099B1192002299420EDA119B119028
:104480001868A118A05058680C3248609868191F25
:1044900008600C33BA42F3D111980999019A431874
:1044A0009B000C980599D318013D58601960584637
:1044B0009E60002DCCD16646A3E703980E998842F2
:1044C000B2DA089B129D5B00059313931099231C8D
:1044D000B446041C9B4608684A680C908B68089890
:1044E0000E1C0D9211930C3684420FDA331C0022FD
:1044F00000941C6888188C505C680C3244609C687E
:10450000181F04600C33AA42F3D1009C0599089A45
:1045100001988B189B000D990C9AC31859601A606A
:10452000119913980E9A013499600590311C0C3D35
:104530009442D0D107990A9A069B664601315C469F
:104540000791B618994200D077E7CB46049BD14635
:1045500002E02F4A136891462E4C2F4863431C18E3
:10456000494660000C60400CFEF7BAF82B49FDF795
:10457000D3FEFC218905FDF799FE00282FD1254B9C
:10458000254A5C43A4184B4660001C60400CFEF7B3
:10459000A7F82249FDF7C0FEFC218905FDF786FE3C
:1045A000002800D19EE644466300DA1D5A4500DD2E
:1045B0005A46934200DB95E65900019CCB18500007
:1045C0009B00211C8218E3180431920004338918DF
:1045D0001A68053A1A600C338B42F9D182E65846C4
:1045E0004146431A5B45CADA5A00D3184100019A82
:1045F0009B005944D31889000432043352181968B7
:10460000033119600C339342F9D1B8E784040000F8
:1046100000FCFF1FFD430300C39E260000FEFF4673
:10462000F0B55F4656464D464446F0B48E4A83B0D8
:10463000136801331360DA0700D5A3E08B4F3B68A2
:10464000002B04DB013B3B60002B00DCA2E0884C2C
:104650009023DB00E258874D9246EA68C823534313
:10466000D917090CC9180914534601315943824816
:10467000FDF756FD814B061C1A68013A90423ADB61
:104680001A60002A3BDD7E4B7E4D1E887E4C2268E0
:10469000002A1ED0002000F0F1FC7C4B36051A6881
:1046A000360D53425A417A4B12031B6859424B4113
:1046B000802109020E435B0316431E437549330AEA
:1046C0000B7000232360744B022218684E7000F0B8
:1046D00023FE724A002013781033DBB213702A686D
:1046E00093424CDB00F006FF03B03CBC9046994679
:1046F000A246AB46F0BD1860021C002AC3DC684A23
:104700001E601368934699465B0098464B449B0095
:10471000E058FFF7E1FA009001916869FFF79EFA0F
:10472000484B474AFEF738F8021C0B1C46484749DD
:10473000FEF72CFF021C0B1C00980199FDF786FD6B
:10474000002849D14E4B1E88564B4846E458211C40
:10475000FDF73CFDFF23002907D048465146FDF7F1
:1047600035FD0023002900D14123464D48462B60EA
:104770000130211CFDF72AFD5B46196086E700F039
:10478000B3FEB1E7484B404C1D882368002B05D190
:104790003C4D9EE7454A444B1A8058E7002000F004
:1047A0006DFC434B2D051A682D0D53425A41414B68
:1047B00012031B68154359424B415B031D433549A6
:1047C0002B0A0B7000232360334B022218684D70B4
:1047D00000F0A2FD2B4D7CE7E1208000FA21704320
:1047E0008900FDF79DFC864224DD386043464B443A
:1047F0009B00E3189A68304958685143802212019F
:104800008918294A18301180FFF728FA104A114BED
:10481000FDF7C2FF104A114BFEF728FC104A114B5E
:10482000FDF7BAFFFFF7E6F9204E154B361AB6B280
:104830001E8089E700233B60D8E7C046C046C046DB
:1048400000000000E0FFEF40000000000000F03F2B
:1048500000000000000028400000000000FEAF4003
:1048600052B81E85EB5118404CFCFF1F08FCFF1F7F
:1048700068FDFF1F50FDFF1F60EA000004FCFF1FE2
:1048800068FCFF1F50FCFF1F0CFCFF1F64FCFF1F98
:104890005CFCFF1F4CFDFF1FCCFCFF1F56FCFF1FE5
:1048A00014FCFF1F8404000054FCFF1FFF0F0000D6
:1048B00060FCFF1F58FCFF1F00F8FFFFC046C0460A
:1048C000F8B55F46564644464D46F0B400F046FB08
:1048D000002000F049F9604F3868FFF7EFFA102127
:1048E0005E48FFF7F9FB002000F0FEFD002000F01D
:1048F00023FC012203239346594A9A46594C01232B
:10490000594E90469946002000F0C6FD23680028C5
:104910003FD0002201332360A260E260012B3FDD23
:104920001E2B07DD23691E2B73D01F23236000235A
:1049300063601F23236142461268012A48D0B3688E
:104940003269DD12D312ED183B682D049D4246D02A
:10495000281CFFF7B3FA53463D604048022B49D06C
:10496000032B67D01021012B56D0FFF7B5FB002099
:1049700000F06CFC002000F007FC002000F034FC8C
:10498000002200209346924600F086FD236800280E
:10499000BFD10022013B2360A260E260012BBFDC9B
:1049A00022690023022A02D14B46A36001234A4612
:1049B000226062602261012BBDD153460133032284
:1049C0001A4092464246126801239B46012AB6D1FC
:1049D000002342460020136000F0C6F8AFE75A46B5
:1049E000012A90D1281CFFF769FA53463D601B4805
:1049F000022BB5D11021FFF767FA002000F020FC50
:104A0000002000F0C1FB002000F0F4FB00239B46D7
:104A100079E74A46E26088E7FFF7DAFA002000F01B
:104A20000FFC002000F0B8FB002000F0DDFB0022AE
:104A3000934668E7042204210423FFF743FC002087
:104A400000F004FC002000F0A7FB002000F0D2FBE7
:104A50000022934657E7C04610FCFF1F68FDFF1F6A
:104A600034FCFF1F38FCFF1F50FDFF1F1C4BF0B52F
:104A7000002B00D1F0BD002703250126D8190268BC
:104A80004168002A26D1002904D18268002AF1D089
:104A90000C37F3E780680028FAD0141C0C43254239
:104AA00008D1032806D910CA043810C10028F4D14F
:104AB0000C37E3E7264207D1012805D914880238CC
:104AC0000C8002320231E6E7147801380C700132B2
:104AD0000131E0E780688A42DDD10C37CEE7C0467D
:104AE000685700007047C0467047C04638B5FFF7AA
:104AF000F9FF00F0D9F9184B181C002805D085469D
:104B000081B00020C043009001B0144B144AD21A67
:104B100008D1FFF7ABFFFFF7E7FF00201149FFF7D0
:104B2000CFFEFEE7032501240020291C194006D1F1
:104B3000032A04D902C3043A002AF6D1E9E7211C6A
:104B4000194005D1012A03D91980023A0233F3E74B
:104B50001870013A0133EFE7000C002018FCFF1F2A
:104B6000040200206CFCFF1FF8B51F4C051C2378C5
:104B70000820DBB2002B00D0F8BD01222270227881
:104B8000002A07D10020002DF6D02378012BFCD07D
:104B90000020F1E72278032A15D0144A1449137033
:104BA000144A0B701370144A138053809380D3807F
:104BB00013815381114E0122306800F011F93068E1
:104BC00000F0F8F8DEE70B4A084916780C4F087831
:104BD000BE5DB04308701078074940004352137817
:104BE00003490B70E6E7C04696FCFF1F94FCFF1FCD
:104BF00098FCFF1F95FCFF1FF0010020FC01002026
:104C00002057000010B50223052801D9181C10BD3B
:104C1000064B1A78064B1C5C09231442F6D0054B50
:104C20004000C35A1B010B800023EFE794FCFF1FD9
:104C300020570000F001002070B5234D2B78042B85
:104C400039D02B78214C2178032B18D0204B214EC2
:104C50004900C918306800F0DFF823780133DBB26F
:104C600023702378062B1DD023781B4930680B70E6
:104C7000012200F0B5F8306800F09CF870BD154BCB
:104C800049001868124BC91800F0C6F82278134B77
:104C900013481978825C0A431A70FFF7EDF8002375
:104CA0002B70EBE70D4B00263F2226701A70FFF7A2
:104CB000E3F82E70E2E7074B186800F0C1F8002314
:104CC0002B70FFF7F7F8D9E796FCFF1F95FCFF1F45
:104CD000F0010020FC01002098FCFF1F94FCFF1F46
:104CE00020570000054A08B500231370044A00202D
:104CF000137000F009F8034B186008BD94FCFF1F07
:104D000096FCFF1FFC010020204A214B30B52149B1
:104D100050601A600020204B10709070CD58802495
:104D200024052C43CC501D4BC32189005D588024A1
:104D30002D022D0A24062C435C501C688021090298
:104D400021431960164B17491C6A0C401C625C6AAF
:104D50000C405C62144B5C690C405C619C6A0C40CA
:104D60009C62DC6A0C40DC625C6B214059630F4B37
:104D700057219960D9680F24A143D9604021186256
:104D800059620B4B101C1A6230BDC046A4FCFF1FB9
:104D9000A0FCFF1F007004403C10000000E100E098
:104DA00000900440FFF8FFFE00A0044000B0034064
:104DB000CCFCFF1F094B10B5196A08220C0601D55F
:104DC000101C10BD5A6A48218A435A621A6A40214F
:104DD0008A431A6242781A600022F1E700B0034069
:104DE00030B59623012A01D0181C30BD084B1C6A2F
:104DF00008232506F8D402700A788223052AF3D8FE
:104E0000044B9A5C4023134343700023ECE7C046F5
:104E100000B003402857000030B502780023002A74
:104E20000AD0064D1A1D920054595A0054520133AB
:104E30000278DBB29A42F5D8002030BD00B00340C2
:104E40000B4B1B205A6A510600D57047DA6C996CDF
:104E5000002089185A6C89181A6C8918DA6B89181D
:104E60009A6B89188022490812020A43DA62ECE739
:104E700000B0034008B5054B01221B689A705868C2
:104E8000FFF7DAFE024B1B6908BDC046A0FCFF1FFE
:104E900000B0034008B500F0FDF808BD08B5FEF706
:104EA000D9FF08BDFFBE7047214B224A2249D1508D
:104EB000224B8822002152019950214AC0218902A7
:104EC0009950204AC0219858C900014399501E4B5F
:104ED0009A78110704D5997808220A43D2B29A70B9
:104EE000164B174A802149029950184A1849985878
:104EF00001408020400401439950164906230B705D
:104F00004B78402213404B70CB781F221340A022D5
:104F10001343CB70104B80221A7010228B791A42E7
:104F2000FCD00C490C228B791A42FCD17047C04648
:104F3000080D000000E000E00020000000700440C8
:104F4000441000003810000000D00740041000009A
:104F5000FFFFFFFC004006400050064010B52E4BFE
:104F60001F215A798A435A711A7907218A431A7183
:104F70002A4B73211A788A4350210A431A705A78AF
:104F800063218A4340210A435A709A7819218A433F
:104F90009A70234B00221A70224BC7229200985815
:104FA000214908409850214A2148546920405061C5
:104FB000204A214854682040C024A4002043506067
:104FC000C1229200985801409950002000F04EF9FB
:104FD000002000F0F7FA002000F0B4F8002000F004
:104FE0008BF8002000F0E0F8002000F009F9002024
:104FF00000F05AFAFFF776FE00F02EF9002000F0DC
:105000001DF8002000F05AF8002000F009FA0020F6
:1050100000F024FA62B610BD00F0074000D007404F
:1050200000E0074000E100E0FFFF00FF00F00F405C
:10503000FFFBFFFF00900440FFF8FFFE0A4B0B4A06
:1050400020211060586908435861186801431960AD
:10505000074B0849586901408020400001435961CD
:10506000054B101C5A62704700F00F40B0FCFF1F48
:1050700000900440FFF8FFFECCFCFF1F014B2022F4
:105080009A60704700F00FF8014B20225A60704779
:1050900000F00FF808B5074B80221868064B520441
:1050A000996A114205D0996A00680A439A62FEF72C
:1050B00003FF08BDB4FCFF1F00900440094A0A4BDF
:1050C00051691860402081435161084A084990693C
:1050D00001408020400001439161064A181C936200
:1050E0007047C04600F00F40B8FCFF1F009004401E
:1050F000FFF8FFFECCFCFF1F0A4B0B4A402110605B
:10510000586908435861186801431960074B0849FA
:10511000986901408020400001439961054B101CB3
:105120001A61704740F00F40BCFCFF1F00A0044014
:10513000FFF8FFFECCFCFF1F014B40225A60704776
:1051400040F00FF80B4B0C4A802110605869490160
:1051500008435861186801431960084B0849186BE7
:1051600001408020400001431963064B101CDA60A7
:105170007047C04600F00F40C0FCFF1F0090044085
:10518000FFF8FFFECCFCFF1F024B802252019A6009
:105190007047C04600F00FF8024B802252015A605F
:1051A0007047C04600F00FF80A4B0B4A042110600C
:1051B000586908435861186801431960074B08494A
:1051C000986801408020400001439960054B101C05
:1051D0005A61704740F00F40C4FCFF1F00A004401C
:1051E000FFF8FFFECCFCFF1F014B04229A607047C2
:1051F00040F00FF8014B04225A60704740F00FF85E
:105200000A4B0B4A0221106058690843586118681C
:1052100001431960074B084958680140802040004D
:1052200001435960054B101C9A61704740F00F40D4
:10523000C8FCFF1F00A00440FFF8FFFECCFCFF1FCE
:10524000014B02229A60704740F00FF8014B022296
:105250005A60704740F00FF8024B034A59690A4000
:105260005A61704700F00F40FFFCFFFF1F4B204AC0
:1052700030B5136000221A6098619A809A819A6012
:10528000DA819A821A6100211A481B4A9975855859
:105290008024E4032C438450184AC220800015580F
:1052A000174C2C4080252D042C431450146880206A
:1052B000C00020431060134A134CD569C02025401C
:1052C00080000543D561114A15682C4020431060C9
:1052D0000F4A1E20107010205070917010784021DD
:1052E000014311700B4A181C136030BD08FDFF1FED
:1052F00004FDFF1F007004403410000000E100E0D6
:10530000FFFF00FF00900440FFF8FFFE00A00440F4
:1053100000600740CCFCFF1F70B5838A82B0041C7C
:10532000002B03D00823181C02B070BD6D46EFF3AC
:10533000108072B62870124805780135EDB20570FC
:10534000012D17D0A2820022E281A27D21610121DC
:105350008A43A2750B4A20211478214311700278E8
:10536000013AD2B20270002ADDD1074A107880F3E8
:105370001088D8E76D462E78034D2E70E2E7C046C0
:10538000ACFCFF1F006007400002002038B5224B34
:105390001C68224BDD78EDB26AB2002A19DB2023AB
:1053A0002B4210D0E189A28A91420DD223695A1C66
:1053B00022611A78194B5A71E389A28A01339BB290
:1053C000E3819A421ED038BD144A11789943117076
:1053D000F9E7A289002AE2D0A268511CA16059799C
:1053E0001170A288A189013292B2A2809142D6D1D5
:1053F0001A787F210A401A700023A381A069FEF762
:1054000035FDCCE7A27D0023A38201231343A375BE
:10541000A069FEF721FDD6E704FDFF1F00600740ED
:10542000094A0A4B51691860802081435161084A3A
:105430000849D0690140802040000143D161064AFB
:10544000181C13637047C04640F00F4024FDFF1F37
:1054500000A00440FFF8FFFECCFCFF1F094A0A4BE6
:1054600051691860082081435161084A0849D06891
:105470000140802040000143D160064A181C53635C
:105480007047C04640F00F4028FDFF1F00A00440B9
:10549000FFF8FFFECCFCFF1F024B18690007C00F8E
:1054A0007047C04640F00FF80A4B0B4A10211060BD
:1054B000586908435861186888431860074B0849C1
:1054C000186901408020400001431961054B101C00
:1054D000DA61704740F00F402CFDFF1F00A0044030
:1054E000FFF8FFFECCFCFF1F014B10229A607047B3
:1054F00040F00FF8014B10225A60704740F00FF84F
:1055000008B5FEF7B5FC08BD1A4A70B55368002B04
:1055100005D01A79986001321A71181C70BD1649AD
:10552000164C8860012008711548802501601548D7
:105530006D042658354325501348C4240360436046
:10554000C3604361114BA400836080235B000B6048
:105550000F4B104D1E5935408026360235431D51E4
:105560001D688024A4022C431C6048230360516002
:105570000B1CD2E7CCFCFF1F34FDFF1F0070044062
:1055800030FDFF1F3C10000000800340B15D0000B3
:1055900000E100E0FF00FFFF08B5084B802218681B
:1055A000074B19680A4208D00168C90505D5196872
:1055B00080680A431A6000F01BF808BD30FDFF1F29
:1055C0000080034038B5084C084DA060012300203E
:1055D0002371AC60FFF798FF2060002801D0201CE9
:1055E00038BDA860FCE7C04640FDFF1FCCFCFF1F94
:1055F00008B5034B9B689868FFF782FF08BDC0465B
:10560000CCFCFF1F6424000016240000442400008A
:105610009E230000442400003A240000442400009B
:105620009E23000016240000162400003A240000E7
:105630009E2300009623000096230000962300007E
:105640004A240000802900001C2900006429000071
:105650004A2800006429000058290000642900003D
:105660004A2800001C2900001C29000058290000BD
:105670004A28000040280000402800004028000080
:10568000A42B0000503200003E3400003E340000E5
:10569000303200001A3100001A31000022320000BE
:1056A000303200001A310000223200001A310000AE
:1056B00030320000183100001831000018310000AD
:1056C000463400009E3F00009E3F0000943F0000D3
:1056D0008C3F0000843F00005E3F00009E3F0000C2
:1056E000A63F00006A420000564200006A420000E5
:1056F000464200003642000024420000764100008D
:105700008A420000504200006242000082420000D3
:1057100050420000404200002E4200008041000044
:1057200001020408102000004342414C4B5000008D
:10573000F8B5C046F8BC08BC9E467047F8B5C046F0
:08574000F8BC08BC9E4670474E
:04574800E920000054
:04574C00C120000078
:1057500035120000010000000100000001000000FF
:08576000FFFFFFFFFFFFFFFF49
:105768005057000000FCFF1F180000000000000058
:08577800000000000000000029
:0400000300004AEDC2
:00000001FF
